:02000000262DAB
:10000800FF00030E8301C5000B1911288C18B328B3
:10001800450E8300FF0E7F0E09008B120B11101086
:100028000108031DAB280408C60048080317031D70
:100038002228991419109A141A102E28FF3E031D0D
:100048002A28991419149A141A142E281914991074
:100058001A149A1003134930480748078400840A81
:10006800000884030004031D3F280E088000840A4A
:100078000F088000A42800080E02CF00840A000898
:100088008403031C013E0F02D000D01B6028840AA1
:100098000008CF02031CD003CF02031CD0030310B7
:1000A800000CCF02031CD0038403D01B602848082F
:1000B80003190430C704A4280310000DD100840AD2
:1000C800000DD200D3010318D30A0310D10DD20DAD
:1000D800D30DD10DD20DD30DD10DD20DD30D840377
:1000E8000008D102840A000803187D28013E03187D
:1000F800D303D202031CD3030E08D1070F08031C35
:100108008828013E0318D30AD2070318D30AD30C50
:10011800D20CD10CD30CD20CD10CD30CD20CD10CE8
:10012800D10F9928D20F9928D30AD30C520C8000EA
:100138008403510C8000480803190430FF3AC705AE
:10014800C80A4808FD3E0318C801460884008F0104
:100158008E011014803081000B118B160C288C1026
:1001680005108510A31CC8282208C83C83169200D5
:100178008312A310871386132508031D0C288316E2
:100188000710831207100C2822080319D328831696
:1001980092008312C73C031CD328A314D728C83065
:1001A8008316920083122208031DE42887138613FE
:1001B8002508031D16298316071083120710162910
:1001C8002119EB288316071083120710F528A119A7
:1001D800F128831607148312F52883160710831253
:1001E800071421188717211C8713A1188617A11C2B
:1001F8008613851205128712071323180D29201A52
:100208008516A01A0516201B8716A01B07170514AC
:10021800162920188516A018051620198716A01962
:1002280007178514A80A83302807031C1D29A8016D
:100238003B14231C632923103B1C56293B10290817
:1002480003192929A90303193B152B0803192F2979
:10025800AB030319BB14370803193529B70303196E
:100268003B172C082D0403194329AC0B40292D08F2
:10027800031D4329BB1543292C0A0319AD032E0876
:100288002F04300403195629AE0B50292F083004C7
:10029800031D5629BB1656292E0F5629AF032F0AC0
:1002A8000319B003380803195C29B8030319BB17ED
:1002B8002A0803196229AA0303193B160C282314D8
:1002C8000408C6000130D40055308400540847059E
:1002D800031D81290008031990298001C23E031CCF
:1002E80078295408BA049029393E031C90295408E7
:1002F800B904540EFF3AB9059029000A0319902948
:10030800800AC23E031C9029540EB9045408FF3ACF
:10031800B905BA05FF308000840A0310D40DD41D36
:080328006A29460884000C2834
:10061C00831203178D0070088C008B1383160C1536
:10062C0055308D00AA308D008C140C118B17831251
:10063C0003130800831203178D0083160C14831206
:10064C000C0803130800A11C2D2BA1100800A114E9
:10065C0008002319352BF0000310700C3A2B633C67
:10066C00031C0030633C3A2BF001B03E0318F0172A
:10067C00031C503ED83E03187017031C283EEC3E5A
:10068C000318F016031C143EF63E03187016031CD8
:10069C000A3E7004A00008002608552B2708F0001D
:1006AC000310F00DF00D7008A20008002319612B47
:1006BC002114A11008002110A1140800BB103D0842
:1006CC00F00000300E233C082F2B8B13AC01AD0136
:1006DC008B1708008B132C082D04031D812BAD01E7
:1006EC0003103E0DAC00AC0DAD0DAC0DAD0D3E0DC3
:1006FC00AC070318AD0A8B1708008B13AE01AF01C2
:10070C00B0018B170800B101B201B3018030B40005
:10071C005130B5000130B6004308F7000310F70C58
:10072C00031CA22B3408B10735080318350FB20788
:10073C0036080318360FB30777080319080003109F
:10074C00B40DB50DB60D942B8B133108AE003208D9
:10075C00AF003308B0008B170800A4180800BB12B8
:10076C008B132C30AC000130AD008B178E2608009B
:10077C003B126330C1001E08633E031CCA2B633C52
:10078C00C10040020318CD2BA41CE22BCF2BA418C4
:10079C00E22BC20A4208053C0318E32B2418E22B77
:1007AC00241DE22B2508031DE22BA418E02BA41416
:1007BC005423E22BA4105223C2019F141230AA001E
:1007CC00080024110A30B70008003B132415080058
:1007DC0083160313A000831203130800831603135C
:1007EC00A101F000F00A0314A10DF00BFA2B8312F7
:1007FC0003130800A400A4030310A40D0000A40B11
:10080C00042C0034831603130408A200200884006F
:10081C002108FF3A80058417800584137830002462
:10082C008B132108841780048413143000242108AE
:10083C000005A5008B17643000240310250803194C
:10084C000314220884008312031300348316031349
:10085C00A500A7010318A70A0408A2002008840019
:10086C000830A3008B132108FF3A800584178005FC
:10087C00250C031C103003180330002421088004BD
:10088C0084132303031D532C27080319532C21080D
:10089C0080048417FF3A800584138B17A50C031C66
:1008AC000330031810300024A30B382C22088400CA
:1008BC00831203130034831603130408A2002008C8
:1008CC0084000830A3008B132108FF3A800584179D
:1008DC008005033000242108800484130230002496
:1008EC002108031000058B17031D0314A50C0D30F4
:1008FC000024A30B692C22088400250883120313FF
:10090C000800B9102508031D0E2FA3152316A418D3
:10091C00A42C24189F2CAB0144080319972CFF30EE
:10092C009A2C0A302319C426BD0024142411A201C8
:10093C0008002410241500302023BD00E723A41048
:10094C0052230800B9122508031D462F2411A414A4
:10095C00542B391124180800E723A410522325081E
:10096C00031D862F2B080319082DBD0A231DBD0A54
:10097C003D0810250318082D503023196330BD0095
:10098C00082D25080319002D0630B800862F3910C4
:10099C0024180800E723A41052232508031DB32FA5
:1009AC002B080319082DBD03231DBD033D0810257D
:1009BC000318082D0A3023192930BD00082D2508ED
:1009CC000319002D0630B800B32FBB130630B80046
:1009DC002508391B862F391AB32F0800B801BB1311
:1009EC003A103A11BA1025080319080039133912B4
:1009FC00B9120800391F0800391E080039133912C2
:100A0C0052230E2F3D082F23A3152316BB100430A1
:100A1C00AB00080023191C2D503C031C0800503C53
:100A2C00F63E031C08000A3E03140800633C031C3A
:100A3C000800633CD73E031C0800293E0314080041
:100A4C008301203084008001840A841F292DA0306A
:100A5C0084008001840A041F2F2DFF30A000323047
:100A6C00C10083169501CC3085005F3086000F30B5
:100A7C0087008312031795019E019F019C309800FB
:100A8C0095309900A5309A008316B0309E008316DD
:100A9C00031301087039273881008C018D018C14E7
:100AAC00C8309200830190019101263092008C1085
:100ABC000B17830107302023F027031C3230A600CC
:100ACC0008302023FA27031C0030A7000330202312
:100ADC002311FF3E0319231500302023BD001025E0
:100AEC0003187F2D2E3023194930BD00F000003043
:100AFC000E23FE30231DBD0501302023F03EBF0028
:100B0C00E827031CBF0102302023BE00633C0330E6
:100B1C00031CBE0005302023C300633C031CC3012F
:100B2C008923C40106302023553C0319C40A043020
:100B3C002023C000633C0A30031CC00083160F1630
:100B4C008F160F170F1DA82D83128B178F018E0177
:100B5C001014803081000B118B160630EE23061E0C
:100B6C00BD2D0430F4230824031CBD2DE52D061FD8
:100B7C00D22D0630F4230824031CD42DA3172930BE
:100B8C009F00831650309F00831203171F15031309
:100B9C009F141230AA00E52D0230D72D0330D72D2B
:100BAC0001303A23323055232808C23E031C211051
:100BBC00031CA114031821140318A110DA2D8301AE
:100BCC00FF30BC00A41024155C2352238926231665
:100BDC0023170824031CD62DCC3003102C24B4303E
:100BEC0003102C2461240139031923130824031C3A
:100BFC00D62DCC3003102C244E3003102C24003076
:100C0C0003102C24003003102C24403003102C240F
:100C1C00B5260130A90083161730970083126400A3
:100C2C00B9188724B91AA8243919AF243918CD2436
:100C3C003A08031DF424BB1BEB243808031D2A2E91
:100C4C00391BC724391AE524BB1864233B19942695
:100C5C003B1ABE23BB197C26BB1AB3233B1BEB23CD
:100C6C002508031D4A272B08031D4126A31F4D26CB
:100C7C00A3196026152E2808E73E031C4A2E231DB7
:100C8C0021142319A11408002110A1100800241DFF
:100C9C000800241808002508031D0800410840021C
:100CAC0003185C2EA41C0800A410522BA4180800D6
:100CBC00A414542BA3112B08031D662E3C082F23C0
:100CCC00231E6A2E23127C2E44080319722E3C0814
:100CDC003D02031C792E762E3D083C02031C792E16
:100CEC00861E6B2B702B861A6B2B702BBB1144083A
:100CFC000319852E3C083D02031C8E2E892E3D08BF
:100D0C003C02031C8E2E8612AA23A1112115080069
:100D1C0086168323BB12A115211508003B1108244C
:100D2C00031CD62DCC3003102C24BE3003102C24E5
:100D3C006124F4006124F5000310F50CF40CF50C9F
:100D4C00F40CF40A0319F50AF50C740C2319C426D7
:100D5C003F073C020319B42EBC02A315B52E082480
:100D6C00031CD62DCC3003102C2444300310231F2D
:100D7C0003142C2404303B11A9000800F100F201EB
:100D8C00E630F000F301F4010310F00C031CD42E38
:100D9C007108F30772080318720FF407700803192F
:100DAC00DB2E0310F10DF20DCA2E7408203E633CAD
:100DBC00031C63300318633C080006308A00E630DD
:100DCC00250703188A0A82001E2F512FDC2FDC2FD7
:100DDC00262F5B2F892FB62F2B2F662F902FBD2FF1
:100DEC002F2F682F972FC32F332F6B2F9E2FC92F89
:100DFC00372F6F2FA52FD02F0800732F0800080056
:100E0C003C2F772FAC2FD62F402F792FE02FE02FB0
:100E1C008127FC30A505031DE3260430A507250812
:100E2C00243C03180800A5018923A31523165C2B69
:100E3C00A111211544080139F000553006300E2B54
:100E4C003F08103EF00001300E2B3E08F00002303F
:100E5C000E2B4308F00005300E2B2608F00007304F
:100E6C000E2B52232708F00008300E2B4008F00000
:100E7C0004300E2B003023190130F00003300E2B00
:100E8C002510A510E326192F2808E73E031C812FF7
:100E9C002514A510E32E4408F038A0004408031DC7
:100EAC00A1110319A11521150800BF1B612F3F08C3
:100EBC00F038A00008003F0EF03A103EA0000800E9
:100ECC003E083A2B211443083A2B26083A23A11545
:100EDC00522B27083A23A111542BA1142114410899
:100EEC003A2B40083A2B23197E2F2114A11008000D
:100EFC00A11421100800FF30A0002110A11008003F
:100F0C002510A514E32EBF0A3F08E8270930031C5F
:100F1C00BF000800BE0A3E08633C6330031CBE00E1
:100F2C000800C30A4308633C6330031CC300080079
:100F3C00A60A2608323C3230031CA6000800A70A79
:100F4C002708323C3230031CA7000800C00A4008B6
:100F5C00633C6330031CC00008002514A514E32E69
:100F6C00BF033F08E827F730031CBF000800BE038F
:100F7C003E08633C031CBE010800C3034308633CEA
:100F8C00031CC3010800A6032608023C0230031808
:100F9C00A6000800A7032708323C031CA701080081
:100FAC00C0034008633C031CC00108000130C406A8
:100FBC00C4050800231DE62F2311FE30BD050800D3
:100FCC0023150800093E123C031C0800123CF73E96
:100FDC0003140800323C031C0800323CFE3E031C88
:100FEC000800023E03140800323C031C0800323C8B
:040FFC0003140800D2
:02400E00D430AC
:00000001FF
