:02000000002CD2
:10000800FF00030E8301C5000B1911288C18B328B3
:10001800450E8300FF0E7F0E09008B120B11101086
:100028000108031DAB280408C60048080317031D70
:100038002228991419109A141A102E28FF3E031D0D
:100048002A28991419149A141A142E281914991074
:100058001A149A1003134930480748078400840A81
:10006800000884030004031D3F280E088000840A4A
:100078000F088000A42800080E02CF00840A000898
:100088008403031C013E0F02D000D01B6028840AA1
:100098000008CF02031CD003CF02031CD0030310B7
:1000A800000CCF02031CD0038403D01B602848082F
:1000B80003190430C704A4280310000DD100840AD2
:1000C800000DD200D3010318D30A0310D10DD20DAD
:1000D800D30DD10DD20DD30DD10DD20DD30D840377
:1000E8000008D102840A000803187D28013E03187D
:1000F800D303D202031CD3030E08D1070F08031C35
:100108008828013E0318D30AD2070318D30AD30C50
:10011800D20CD10CD30CD20CD10CD30CD20CD10CE8
:10012800D10F9928D20F9928D30AD30C520C8000EA
:100138008403510C8000480803190430FF3AC705AE
:10014800C80A4808FD3E0318C801460884008F0104
:100158008E011014803081000B118B160C288C1026
:100168000408C600231CCE28051085108512051228
:1001780087120713203022182130840000188516B2
:10018800801805160019871680190717221C0514F0
:1001980022188514221C24292210A50ACE302507EE
:1001A8000318A50126080319DC28A6030319BB14A4
:1001B80027080319E228A7030319BB152808031900
:1001C800E828A80303193B14380839040319F6284A
:1001D800B80BF3283908031DF628BB16F628380A89
:1001E8000319B90329082A042B0403190929A90B9F
:1001F80003292A082B04031D09293B150929290F5E
:100208000929AA032A0A0319AB032C082D042E0472
:100218002F0403192129AC0B18292D082E042F04AB
:10022800031D21293B1621292C0F2129AD032D0F50
:100238002129AE032E0A0319AF03460884000C28AF
:1002480022140130D4005530840054084705031D9A
:100258003D29000803194B298001CE3E03184B297C
:100268002E3E031C4B295408BA04540EFF3ABA0513
:100278004B29000A03194B29800ACE3E031C4B293F
:10028800540EBA045408FF3ABA05FF308000840AB5
:0E0298000310D40DD41D2929460884000C281B
:10064000831203178D0070088C008B1383160C1512
:1006500055308D00AA308D008C140C118B1783122D
:1006600003130800831203178D0083160C148312E2
:100670000C0803130800A218412BF0000310700CA3
:10068000462B633C031C0030633C462BF001B03E1C
:100690000318F015031C503ED83E03187015031CB8
:1006A000283EEC3E0318F014031C143EF63E0318DB
:1006B0007014031C0A3EA1007008A0000800231457
:1006C000A2188713A21C8717A2188617A21C8613CC
:1006D000861A6E2B831607148312080083160710E0
:1006E0008312071408002310051085108713861342
:1006F00083160710831207100800BA102408031D80
:10070000F82EA2152216231C912BA80144080319C8
:100710008B2BFF308E2B0A30A218E625BD00A314C8
:10072000732B00303223BD00A3102311F823A31133
:100730005F2BBA122408031D0800231C0800231590
:10074000732B3A11A31808002318A92B2311A31106
:100750005F23F8232408031D862FBD0AA21CBD0AAF
:100760003D08E2230318DA2B5030A2186330BD0095
:10077000DA2B3A10A31808002318C12B2311A31158
:100780005F23F8232408031DC12FBD03A21CBD0352
:100790003D08E2230318DA2B0A30A2182930BD00E5
:1007A000DA2B3A1F08003A1E08003A133A12231CAB
:1007B0005F23F82E3D083B23A21522163B10643020
:1007C000A8000800A218EE2B503C031C0800503C67
:1007D000F63E031C08000A3E03140800633C031C99
:1007E0000800633CD73E031C0800293E03140800A0
:1007F00023168B13F430B8000130B9008B170800B2
:100800008301203084008001840A841F032C0F3070
:10081000A000A10083169501CC3085005F308600D2
:100820000F3087008312031795019E019F019C30B2
:10083000980095309900A5309A008316B0309E003C
:100840008316031301087039273881008C018D014C
:100850008C14FA3092008301900191014D30920086
:100860008C100B17830103303223A210FF3E0319B3
:10087000A21400303223BD00E2230318462C2E3090
:10088000A2184930BD00F00000302023013032238F
:10089000F03EBF00F827031CBF0102303223BE0028
:1008A000633C0330031CBE0005303223C3008E02BC
:1008B000031CC301B324C40106303223D50203193B
:1008C000C40A83160F1D622C83128B178F018E01B1
:1008D0001014803081000B118B16061E732C052618
:1008E000031C732C362D061F8D2CA2160526031C07
:1008F0008F2C04303223C000633C0A30031CC0003C
:1009000029309F00831650309F00831203171F1554
:1009100003139F140F30A700362D02302A2D033009
:100920002A2D3B103D08F000003020233C083B2BD3
:100930008B13A901AA01AB018B1708008B1329089F
:100940002A042B04031DAA2CA901AB0103103E0DA0
:10095000AA00AB0D8B1708008B13AC01AD01AE01E3
:10096000AF018B170800B001B101B201B301003033
:10097000B400EB30B5004130B6000030B70043089A
:10098000F7000310F70C031CD32C3408B00735080C
:100990000318350FB10736080318360FB2073708AA
:1009A0000318370FB3077708031908000310B40DB5
:1009B000B50DB60DB70DC12C8B133008AC00310846
:1009C000AD003208AE003308AF008B170800A31942
:1009D00008003B128B139830A9003A30AA0000306F
:1009E000AB008B17AA250800BB116330C1001E089D
:1009F000633E031C002D633CC10040020318102D10
:100A0000A31D212DC20A4208053C0318222DC20154
:100A1000A318222D2319222DA311231C5F23222D7D
:100A2000231A222DA319212DC20A4208053C0318BE
:100A3000222DC2012408031D222DA3152318732380
:100A4000222DC2019F140F30A7000800BB122312F1
:100A50000800013046232508E73E031C8713031CCA
:100A6000861703188717031886132B2D8301FF3071
:100A7000BC00A2255F2322170526031C292DCC309C
:100A80000B26B4300B26773084000826001C221376
:100A90000526031C292DCC300B264E300B260030AA
:100AA0000B2600300B2640300B26D52583160D3043
:100AB000970083126400BA187D23BA1A99233A1951
:100AC000A1233A1BD1233A18B9233A1AD1233B1850
:100AD0009124BB18B425BB19F4243B1995253B1A66
:100AE000E724BB1A26252408031D4327A2197925CC
:100AF0005A2DA2112808031D7F2D3C083B23221EDE
:100B0000832D2212952D440803198B2D3C083D029C
:100B1000031C922D8F2D3D083C02031C922D861E36
:100B2000982C9E2C861A982C9E2C3B114408031955
:100B30009E2D3C083D02031CAA2DA22D3D083C021F
:100B4000031CAA2D8612DC24231C0800831607141C
:100B5000831208008616AC243B12231C080083165F
:100B60000710831207140800BB100526031C292D4B
:100B7000CC300B26BE300B2674308400082675302E
:100B8000840008260310F50CF40CF50CF40CF40AA0
:100B90000319F50AF50C740CA218E6253F073C0270
:100BA0000319D42DBC02A215D52D0526031C292D11
:100BB000CC300B2644300B263230BB10A600080088
:100BC000861BE42D8617080086130800F100F20149
:100BD000E630F000F301F4010310F00C031CF62DD5
:100BE0007108F30772080318720FF40770080319ED
:100BF000FD2D0310F10DF20DEC2D7408203E633C29
:100C0000031C63300318633C0800A21E0E2E832EC3
:100C1000A21E612ED62EA21E372EAC2EF1018B13F2
:100C20008316061683120612831606128312633089
:100C3000F2000000000000000000F20B1B2E8316E3
:100C4000061683120D30F2000000000000000000C4
:100C5000F20B262E061EF10A8B175530F20000000B
:100C6000000000000000F20B312EF10C0034F10006
:100C70000830F0008B130612831606128312000050
:100C800000000000F10C8316031806160B30F2006A
:100C90000000000000000000F20B4A2E061683122E
:100CA000F003031D8B17031D3A2E221B5F2E710CC0
:100CB000443C031D5F2E06168316061283128B1703
:100CC00000340830F0008B13061283160612000061
:100CD0000000000000000000000006168312000063
:100CE00000000000000006088B171039FF3E800C42
:100CF0000930F2000000000000000000F20B7C2E22
:100D0000F00B632E0034F1018B1383160617831248
:100D100006138316061383126330F20000000000EE
:100D200000000000F20B902E8316061783120D3080
:100D3000F2000000000000000000F20B9B2E061FD6
:100D4000F10A8B175530F20000000000000000008F
:100D5000F20BA62EF10C0034F1000830F0008B13DA
:100D60000613831606138312000000000000F10C26
:100D70008316031806170B30F20000000000000075
:100D80000000F20BBF2E06178312F003031D8B1712
:100D9000031DAF2E221BD42E710C443C031DD42EF8
:100DA00006178316061383128B1700340830F000E1
:100DB0008B130613831606130000000000000000CA
:100DC0000000000006178312000000000000000071
:100DD00006088B174039FF3E800C0930F2000000F6
:100DE000000000000000F20BF12EF00BD82E0034B2
:100DF00080272408031DFE2EA40A0800FF3E031DC1
:100E0000082F3F08103EF00001302023A40A0800FC
:100E1000FF3E031D112F3E08F00002302023A40ADC
:100E20000800FF3E031D1C2F0030A2180130F00007
:100E300003302023A40A0800FF3E031D262F430889
:100E4000F00005302023B324A40A0800FF3E031D50
:100E5000352F4408FF3E0030031C5530F0000630AB
:100E60002023A21E3F2FA40A0800FF3E031D3A2F95
:100E7000A40A08004008F000043020233F2FA401FA
:100E8000A21522165F2B2508F63E031C802F240393
:100E9000031D572F0F30BF1B512FA0003F08A1008B
:100EA0000800A1003F08FF3A013EA0000800FF3EF5
:100EB000031D5D2F3E0846230800FF3E031D652FDE
:100EC000A21C8717A21886170800FF3E031D6C2F6F
:100ED0008717430846230800FF3E031D752F86171A
:100EE0000F30A0004408A1000800FF3E031D7D2F25
:100EF0008617871741084623080040084623080044
:100F00000F30A000A100871386130800FF3E031DC9
:100F1000902FBF0A3F08F8270930031CBF000800C4
:100F2000FF3E031D9A2FBE0A3E08633C6330031C3C
:100F3000BE000800FF3E031DA32FA21CA12FA2107C
:100F40000800A2140800FF3E031DAD2FC30A43088A
:100F50000E3C0E30031CC3000800FF3E031DB72FDC
:100F6000C40A4408013C0130031CC4000800FF3ED1
:100F700003190800C00A4008633C6330031CC0002A
:100F80000800FF3E031DCB2FBF033F08F827F730B3
:100F9000031CBF000800FF3E031DD42FBE033E0804
:100FA000633C031CBE010800FF3E031DDD2FA21C95
:100FB000DB2FA2100800A2140800FF3E031DE62F3D
:100FC000C30343080E3C031CC3010800FF3E031D7E
:100FD000EF2FC4034408013C031CC4010800FF3E7A
:100FE00003190800C0034008633C031CC00108004B
:100FF000093E123C031C0800123CF73E0314080093
:02400E00D430AC
:00000001FF
