:02000000272DAA
:10000800FF00030E8301C5000B1911288C18B628B0
:10001800450E8300FF0E7F0E09008B120B11101086
:100028000108031DAE280408C60048080317031D6D
:100038002228991419109A141A102E28FF3E031D0D
:100048002A28991419149A141A142E281914991074
:100058001A149A1003134930480748078400840A81
:10006800000884030004031D3F280E088000840A4A
:100078000F088000A72800080E02CF00840A000895
:100088008403031C013E0F02D000D01B6328840A9E
:100098000008CF02031CD003CF02031CD00348087A
:1000A80003195B280310000CCF02031CD003840340
:1000B800D01B6328480803190430C704A728031075
:1000C800000DD100840A000DD200D3010318D30A11
:1000D8000310D10DD20DD30DD10DD20DD30DD10DED
:1000E800D20DD30D84030008D102840A0008031836
:1000F8008028013E0318D303D202031CD3030E0841
:10010800D1070F08031C8B28013E0318D30AD20716
:100118000318D30AD30CD20CD10CD30CD20CD10CAB
:10012800D30CD20CD10CD10F9C28D20F9C28D30A07
:10013800D30C520C80008403510C8000480803192A
:100148000430FF3AC705C80A4808FD3E0318C8012D
:10015800460884008F018E011014803081000B1135
:100168008B160C288C1005108510A31CCB28A31007
:100178002208C83C83169200831287138613250829
:10018800031DCA2883160710831207100C2822089B
:100198000319D628831692008312C73C031CD6285D
:1001A800A314DA28C8308316920083122208031D8C
:1001B800E728871386132508031D192983160710B6
:1001C8008312071019292119EE28831607108312A4
:1001D8000710F828A119F428831607148312F828A1
:1001E800831607108312071421188717211C8713F9
:1001F800A1188617A11C86138512051287120713EA
:1002080023181029201A8516A01A0516201B8716F0
:10021800A01B07170514192920188516A0180516FC
:1002280020198716A01907178514A80A83302807EC
:10023800031C2029A8013B14231C662923103B1CFE
:1002480059293B10290803192C29A90303193B151F
:100258002B0803193229AB030319BB1437080319F8
:100268003829B70303193B172C082D04031946290D
:10027800AC0B43292D08031D4629BB1546292C0A1A
:100288000319AD032E082F04300403195929AE0BA6
:1002980053292F083004031D5929BB1659292E0F3D
:1002A8005929AF032F0A0319B003380803195F2926
:1002B800B8030319BB172A0803196529AA030319E8
:1002C8003B160C2823140408C6000130D40055300E
:1002D800840054084705031D84290008031993293D
:1002E8008001C23E031C7B295408BA049329393E75
:1002F800031C93295408B904540EFF3AB9059329ED
:10030800000A03199329800AC23E031C9329540E3C
:10031800B9045408FF3AB905BA05FF308000840AC9
:0E0328000310D40DD41D6D29460884000C2846
:10062200831203178D0070088C008B1383160C1530
:1006320055308D00AA308D008C140C118B1783124B
:1006420003130800831203178D0083160C14831200
:100652000C0803130800A319322BF0000310700CCE
:10066200372B633C031C0030633C372BF001B03E58
:100672000318F017031C503ED83E03187017031CD2
:10068200283EEC3E0318F016031C143EF63E0318F7
:100692007016031C0A3E7004A00008002608522BA4
:1006A2002708F0000310F00DF00D7008A2000800FA
:1006B200A3195E2B2114A11008002110A114080017
:1006C200BB103D08F0000030112359233C082C2BAD
:1006D2008B13AC01AD018B1708008B132C082D0472
:1006E200031D7F2BAD0103103E0DAC00AC0DAD0D13
:1006F200AC0DAD0D3E0DAC070318AD0A8B1708000B
:100702008B13AE01AF01B0018B170800B101B2012A
:10071200B3018030B4005130B5000130B600430857
:10072200F7000310F70C031CA02B3408B10735089F
:100732000318350FB20736080318360FB3077708C8
:10074200031908000310B40DB50DB60D922B8B13CF
:100752003108AE003208AF003308B0008B17080032
:10076200A4180800BB128B132C30AC000130AD0072
:100772008B178E2608003B126230C1001E08623EB3
:10078200031CC52B623CC100410840020318CC2B5C
:10079200A41CE12BCE2BA418E12BC20A4208053C73
:1007A2000318E22B2418E12B241DE12B2508031D3D
:1007B200E12BA418DF2BA4145123E12BA4104F2307
:1007C200C2019F141230AA00080024110A30B70097
:1007D20008003B132415080083160313A00083129C
:1007E2000313080083160313A101F000F00A031497
:1007F200A10DF00BF92B831203130800A400A4032C
:100802000310A40D0000A40B032C00348316031361
:100812000408A200200884002108FF3A80058417FA
:10082200800584137830FF238B13210884178004FA
:1008320084131430FF2321080005A5008B176430B0
:10084200FF230310250803190314220884008312CE
:100852000313003483160313A500A7010318A70A84
:100862000408A200200884000830A3008B1321088A
:10087200FF3A800584178005250C031C10300318ED
:100882000330FF232108800484132303031D522C09
:1008920027080319522C210880048417FF3A800587
:1008A20084138B17A50C031C033003181030FF238D
:1008B200A30B372C220884008312031300348316FF
:1008C20003130408A200200884000830A3008B133D
:1008D2002108FF3A8005841780050330FF23210891
:1008E200800484130230FF232108031000058B17B4
:1008F200031D0314A50C0D30FF23A30B682C220843
:1009020084002508831203130800B9102508031D6B
:100912000E2F2316A316A418A32C24189E2CAB0169
:1009220044080319962CFF30992C0A30A319C426C7
:10093200BD0024142411A201080024102415003043
:100942002323BD00E623A4104F230800B912250873
:10095200031D462FB7012411A414512B3911241859
:100962000800E623A4104F232508031D862F2B0819
:100972000319092DBD0AA31DBD0A3D08112503183F
:10098200092D5030A3196330BD00092D2508031924
:10099200002D0630B800862F391024180800E623EF
:1009A200A4104F232508031DB32F2B080319092D6B
:1009B200BD03A31DBD033D0811250318092D0A30EF
:1009C200A3192930BD00092D25080319002D063071
:1009D200B800B32FBB130630B8002508391B862F89
:1009E200391AB32F0800B801BB133A103A11BA10E2
:1009F20025080319080039133912B9120800391FE2
:100A02000800391E080039133912A4104F230E2F83
:100A12003D082C232316A316BB100430AB0008009C
:100A2200A3191D2D503C031C0800503CF63E031C2C
:100A320008000A3E03140800633C031C0800633CE0
:100A4200D73E031C0800293E03140800830120300E
:100A520084008001840A841F2A2DA0308400800132
:100A6200840A041F302DFF30A0003230C1008316EB
:100A72009501CC3085005F3086000F3087008312ED
:100A8200031795019E019F019C30980095309900B3
:100A9200A5309A008316B0309E0083160313010816
:100AA2007039273881008C018D018C14C830920076
:100AB200830190019101263092008C100B17830163
:100AC20007302323F027031C3230A60008302323EB
:100AD200FA27031C0030A70003302323A311FF3E93
:100AE2000319A31500302323BD0011250318802DFF
:100AF2002E30A3194930BD00F00000301123FE3022
:100B0200A31DBD0501302323F03EBF00E827031CCF
:100B1200BF0102302323BE00633C0330031CBE002E
:100B220005302323C300633C031CC3018723C40194
:100B320006302323553C0319C40A04302323C00082
:100B4200633C0A30031CC00083160F168F160F1762
:100B52000F1DA92D1730970083128B1764008F0188
:100B62008E011014803081000B118B160630ED239C
:100B7200061EC12D0430F3230724031CC12DE92DC9
:100B8200061FD62D0630F3230724031CD82DA317E6
:100B920029309F00831650309F00831203171F15C0
:100BA20003139F141230AA00E92D0230DB2D03300B
:100BB200DB2D01303723323052232808C23E031C7A
:100BC2002110031CA114031821140318A110DE2DF7
:100BD2008301FF30BC00A410241559234F2389261A
:100BE200A31623170724031CDA2DCC3003102B2461
:100BF200B43003102B246024013903192313072472
:100C0200031CDA2DCC3003102B244E3003102B247E
:100C1200003003102B24003003102B24403003102B
:100C22002B24B5260130A9006400B9188624B91A0C
:100C3200A7243919AF243918CD243A08031DF42406
:100C4200BB1BEB243808031D2A2E391BC724391A73
:100C5200E524BB1861233B1994263B1ABC23BB191C
:100C62007C26BB1AB1233B1BEA232508031D4A2716
:100C72002B08031D4126A31F4D26231A6026152E7D
:100C82002808E73E031C4A2EA31D2114A319A11410
:100C920008002110A1100800241D080024180800D3
:100CA2002508031D08004108400203185C2EA41CFD
:100CB2000800A4104F2BA4180800A414512B2312CF
:100CC2002B08031D662E3C082C23A31E6A2EA3129A
:100CD2007C2E44080319722E3C083D02031C792E17
:100CE200762E3D083C02031C792E861E692B6E2B44
:100CF200861A692B6E2BBB1144080319852E3C08FA
:100D02003D02031C8E2E892E3D083C02031C8E2EB2
:100D12008612A823A1112115080086168123BB1271
:100D2200A115211508003B110724031CDA2DCC3034
:100D320003102B24BE3003102B246024F400602403
:100D4200F5000310F50CF40CF50CF40CF40A03197D
:100D5200F50AF50C740CA319C4263F073C020319CB
:100D6200B42EBC022316B52E0724031CDA2DCC3078
:100D720003102B2444300310231F03142B240430AC
:100D82003B11A9000800F100F201E630F000F30186
:100D9200F4010310F00C031CD42E7108F30772083F
:100DA2000318720FF40770080319DB2E0310F10DFC
:100DB200F20DCA2E7408203E633C031C63300318F4
:100DC200633C080006308A00E630250703188A0AC9
:100DD20082001E2F512FDC2FDC2F262F5B2F892F15
:100DE200B62F2B2F662F902FBD2F2F2F682F972FC7
:100DF200C32F332F6B2F9E2FC92F372F6F2FA52F66
:100E0200D02F0800732F080008003C2F772FAC2F3B
:100E1200D62F402F792FE02FE02F8127FC30A50518
:100E2200031DE3260430A5072508243C0318080007
:100E3200A50187232316A316592BA11121154408B6
:100E42000139F00055300630112B3F08103EF000FA
:100E52000130112B3E08F0000230112B4308F00044
:100E62000530112B2608F0000730112B4F232708DD
:100E7200F0000830112B4008F0000430112B003034
:100E8200A3190130F0000330112B2510A510E32621
:100E9200192F2808E73E031C812F2514A510E32EE5
:100EA2004408F038A0004408031DA1110319A1153C
:100EB20021150800BF1B612F3F08F038A000080071
:100EC2003F0EF03A103EA00008003E08372B2114D6
:100ED2004308372B26083723A1154F2B2708372322
:100EE200A111512BA11421144108372B4008372B93
:100EF200A3197E2F2114A1100800A11421100800AB
:100F0200FF30A0002110A11008002510A514E32E27
:100F1200BF0A3F08E8270930031CBF000800BE0AC9
:100F22003E08633C6330031CBE000800C30A43084A
:100F3200633C6330031CC3000800A60A2608323C47
:100F42003230031CA6000800A70A2708323C3230C0
:100F5200031CA7000800C00A4008633C6330031C5E
:100F6200C00008002514A514E32EBF033F08E8279C
:100F7200F730031CBF000800BE033E08633C031C9D
:100F8200BE010800C3034308633C031CC3010800FD
:100F9200A6032608023C02300318A6000800A70395
:100FA2002708323C031CA7010800C0034008633C29
:100FB200031CC00108000130C406C4050800A31DBB
:100FC200E62FA311FE30BD050800A3150800093E57
:100FD200123C031C0800123CF73E03140800323C8A
:100FE200031C0800323CFE3E031C0800023E0314B0
:0E0FF2000800323C031C0800323C03140800C7
:02400E00D430AC
:00000001FF
