:02000000262DAB
:10000800FF00030E8301C5000B1911288C18B328B3
:10001800450E8300FF0E7F0E09008B120B11101086
:100028000108031DAB280408C60048080317031D70
:100038002228991419109A141A102E28FF3E031D0D
:100048002A28991419149A141A142E281914991074
:100058001A149A1003134930480748078400840A81
:10006800000884030004031D3F280E088000840A4A
:100078000F088000A42800080E02CF00840A000898
:100088008403031C013E0F02D000D01B6028840AA1
:100098000008CF02031CD003CF02031CD0030310B7
:1000A800000CCF02031CD0038403D01B602848082F
:1000B80003190430C704A4280310000DD100840AD2
:1000C800000DD200D3010318D30A0310D10DD20DAD
:1000D800D30DD10DD20DD30DD10DD20DD30D840377
:1000E8000008D102840A000803187D28013E03187D
:1000F800D303D202031CD3030E08D1070F08031C35
:100108008828013E0318D30AD2070318D30AD30C50
:10011800D20CD10CD30CD20CD10CD30CD20CD10CE8
:10012800D10F9928D20F9928D30AD30C520C8000EA
:100138008403510C8000480803190430FF3AC705AE
:10014800C80A4808FD3E0318C801460884008F0104
:100158008E011014803081000B118B160C288C1026
:1001680005108510A31CC828A3102208C83C8316B4
:1001780092008312871386132508031DC728831648
:100188000710831207100C2822080319D328831696
:1001980092008312C73C031CD328A314D728C83065
:1001A8008316920083122208031DE42887138613FE
:1001B8002508031D16298316071083120710162910
:1001C8002119EB288316071083120710F528A119A7
:1001D800F128831607148312F52883160710831253
:1001E800071421188717211C8713A1188617A11C2B
:1001F8008613851205128712071323180D29201A52
:100208008516A01A0516201B8716A01B07170514AC
:10021800162920188516A018051620198716A01962
:1002280007178514A80A83302807031C1D29A8016D
:100238003B14231C632923103B1C56293B10290817
:1002480003192929A90303193B152B0803192F2979
:10025800AB030319BB14370803193529B70303196E
:100268003B172C082D0403194329AC0B40292D08F2
:10027800031D4329BB1543292C0A0319AD032E0876
:100288002F04300403195629AE0B50292F083004C7
:10029800031D5629BB1656292E0F5629AF032F0AC0
:1002A8000319B003380803195C29B8030319BB17ED
:1002B8002A0803196229AA0303193B160C282314D8
:1002C8000408C6000130D40055308400540847059E
:1002D800031D81290008031990298001C23E031CCF
:1002E80078295408BA049029393E031C90295408E7
:1002F800B904540EFF3AB9059029000A0319902948
:10030800800AC23E031C9029540EB9045408FF3ACF
:10031800B905BA05FF308000840A0310D40DD41D36
:080328006A29460884000C2834
:10061A00831203178D0070088C008B1383160C1538
:10062A0055308D00AA308D008C140C118B17831253
:10063A0003130800831203178D0083160C14831208
:10064A000C0803130800A11C2C2BA1100800A114EC
:10065A000800A319342BF0000310700C392B633CEB
:10066A00031C0030633C392BF001B03E0318F0172D
:10067A00031C503ED83E03187017031C283EEC3E5C
:10068A000318F016031C143EF63E03187016031CDA
:10069A000A3E7004A00008002608542B2708F00020
:1006AA000310F00DF00D7008A2000800A319602BCA
:1006BA002114A11008002110A1140800BB103D0844
:1006CA00F00000300D233C082E2B8B13AC01AD013A
:1006DA008B1708008B132C082D04031D802BAD01EA
:1006EA0003103E0DAC00AC0DAD0DAC0DAD0D3E0DC5
:1006FA00AC070318AD0A8B1708008B13AE01AF01C4
:10070A00B0018B170800B101B201B3018030B40007
:10071A005130B5000130B6004308F7000310F70C5A
:10072A00031CA12B3408B10735080318350FB2078B
:10073A0036080318360FB3077708031908000310A1
:10074A00B40DB50DB60D932B8B133108AE003208DC
:10075A00AF003308B0008B170800A4180800BB12BA
:10076A008B132C30AC000130AD008B178E2608009D
:10077A003B126330C1001E08633E031CC92B633C55
:10078A00C10040020318CC2BA41CE12BCE2BA418C9
:10079A00E12BC20A4208053C0318E22B2418E12B7C
:1007AA00241DE12B2508031DE12BA418DF2BA4141B
:1007BA005323E12BA4105123C2019F141230AA0023
:1007CA00080024110A30B70008003B13241508005A
:1007DA0083160313A000831203130800831603135E
:1007EA00A101F000F00A0314A10DF00BF92B8312FA
:1007FA0003130800A400A4030310A40D0000A40B13
:10080A00032C0034831603130408A2002008840072
:10081A002108FF3A80058417800584137830FF2366
:10082A008B1321088417800484131430FF232108B2
:10083A000005A5008B176430FF2303102508031950
:10084A00031422088400831203130034831603134B
:10085A00A500A7010318A70A0408A200200884001B
:10086A000830A3008B132108FF3A800584178005FE
:10087A00250C031C103003180330FF2321088004C1
:10088A0084132303031D522C27080319522C210811
:10089A0080048417FF3A800584138B17A50C031C68
:1008AA00033003181030FF23A30B372C22088400CF
:1008BA00831203130034831603130408A2002008CA
:1008CA0084000830A3008B132108FF3A800584179F
:1008DA0080050330FF232108800484130230FF239C
:1008EA002108031000058B17031D0314A50C0D30F6
:1008FA00FF23A30B682C2208840025088312031304
:10090A000800B9102508031D0E2F2316A316A418D4
:10091A00A32C24189E2CAB0144080319962CFF30F3
:10092A00992C0A30A319C426BD0024142411A2014B
:10093A0008002410241500301F23BD00E623A4104C
:10094A0051230800B9122508031D462FB7012411A7
:10095A00A414532B391124180800E623A410512398
:10096A002508031D862F2B080319082DBD0AA31D70
:10097A00BD0A3D0810250318082D5030A31963300D
:10098A00BD00082D25080319002D0630B800862F52
:10099A00391024180800E623A41051232508031D42
:1009AA00B32F2B080319082DBD03A31DBD033D0852
:1009BA0010250318082D0A30A3192930BD00082D67
:1009CA0025080319002D0630B800B32FBB130630D3
:1009DA00B8002508391B862F391AB32F0800B80129
:1009EA00BB133A103A11BA10250803190800391333
:1009FA003912B9120800391F0800391E08003913C4
:100A0A00391251230E2F3D082E232316A316BB108D
:100A1A000430AB000800A3191C2D503C031C08002D
:100A2A00503CF63E031C08000A3E03140800633CCF
:100A3A00031C0800633CD73E031C0800293E03142C
:100A4A0008008301203084008001840A841F292D34
:100A5A00A03084008001840A041F2F2DFF30A000DB
:100A6A003230C10083169501CC3085005F30860094
:100A7A000F3087008312031795019E019F019C3056
:100A8A00980095309900A5309A008316B0309E00E0
:100A9A008316031301087039273881008C018D01F0
:100AAA008C14C83092008301900191012630920083
:100ABA008C100B17830107301F23F027031C3230D9
:100ACA00A60008301F23FA27031C0030A7000330B2
:100ADA001F23A311FF3E0319A31500301F23BD00D6
:100AEA00102503187F2D2E30A3194930BD00F000C0
:100AFA0000300D23FE30A31DBD0501301F23F03E3B
:100B0A00BF00E827031CBF0102301F23BE00633C5D
:100B1A000330031CBE0005301F23C300633C031CC3
:100B2A00C3018823C40106301F23553C0319C40A94
:100B3A0004301F23C000633C0A30031CC000831624
:100B4A000F168F160F170F1DA82D83128B178F01E3
:100B5A008E011014803081000B118B160630ED23A4
:100B6A00061EBD2D0430F3230724031CBD2DE52DDD
:100B7A00061FD22D0630F3230724031CD42DA317F6
:100B8A0029309F00831650309F00831203171F15C8
:100B9A0003139F141230AA00E52D0230D72D03301B
:100BAA00D72D01303923323054232808C23E031C82
:100BBA002110031CA114031821140318A110DA2D03
:100BCA008301FF30BC00A41024155B23512389261E
:100BDA00A31623170724031CD62DCC3003102B246D
:100BEA00B43003102B24602401390319231307247A
:100BFA00031CD62DCC3003102B244E3003102B248B
:100C0A00003003102B24003003102B244030031033
:100C1A002B24B5260130A9008316173097008312BA
:100C2A006400B9188624B91AA7243919AF243918C7
:100C3A00CD243A08031DF424BB1BEB243808031DFA
:100C4A002A2E391BC724391AE524BB1863233B19FA
:100C5A0094263B1ABD23BB197C26BB1AB2233B1B25
:100C6A00EA232508031D4A272B08031D4126A31F33
:100C7A004D26231A6026152E2808E73E031C4A2E05
:100C8A00A31D2114A319A11408002110A110080002
:100C9A00241D0800241808002508031D080041081F
:100CAA00400203185C2EA41C0800A410512BA4189F
:100CBA000800A414532B23122B08031D662E3C088C
:100CCA002E23A31E6A2EA3127C2E44080319722E09
:100CDA003C083D02031C792E762E3D083C02031C7B
:100CEA00792E861E6A2B6F2B861A6A2B6F2BBB11E5
:100CFA0044080319852E3C083D02031C8E2E892EBA
:100D0A003D083C02031C8E2E8612A923A11121152F
:100D1A00080086168223BB12A115211508003B1173
:100D2A000724031CD62DCC3003102B24BE3003100D
:100D3A002B246024F4006024F5000310F50CF40C55
:100D4A00F50CF40CF40A0319F50AF50C740CA31942
:100D5A00C4263F073C020319B42EBC022316B52E43
:100D6A000724031CD62DCC3003102B244430031047
:100D7A00231F03142B2404303B11A9000800F1009F
:100D8A00F201E630F000F301F4010310F00C031C49
:100D9A00D42E7108F30772080318720FF40770084B
:100DAA000319DB2E0310F10DF20DCA2E7408203E32
:100DBA00633C031C63300318633C080006308A0056
:100DCA00E630250703188A0A82001E2F512FDC2FCE
:100DDA00DC2F262F5B2F892FB62F2B2F662F902FD4
:100DEA00BD2F2F2F682F972FC32F332F6B2F9E2F97
:100DFA00C92F372F6F2FA52FD02F0800732F080068
:100E0A0008003C2F772FAC2FD62F402F792FE02FB9
:100E1A00E02F8127FC30A505031DE3260430A50732
:100E2A002508243C03180800A50188232316A316C5
:100E3A005B2BA111211544080139F0005530063009
:100E4A000D2B3F08103EF00001300D2B3E08F0003C
:100E5A0002300D2B4308F00005300D2B2608F00058
:100E6A0007300D2B51232708F00008300D2B4008BE
:100E7A00F00004300D2B0030A3190130F0000330CC
:100E8A000D2B2510A510E326192F2808E73E031C71
:100E9A00812F2514A510E32E4408F038A000440839
:100EAA00031DA1110319A11521150800BF1B612FEC
:100EBA003F08F038A00008003F0EF03A103EA000AC
:100ECA0008003E08392B21144308392B26083923F8
:100EDA00A115512B27083923A111532BA114211431
:100EEA004108392B4008392BA3197E2F2114A11050
:100EFA000800A11421100800FF30A0002110A11041
:100F0A0008002510A514E32EBF0A3F08E827093078
:100F1A00031CBF000800BE0A3E08633C6330031C82
:100F2A00BE000800C30A4308633C6330031CC300C5
:100F3A000800A60A2608323C3230031CA600080024
:100F4A00A70A2708323C3230031CA7000800C00A4F
:100F5A004008633C6330031CC00008002514A51434
:100F6A00E32EBF033F08E827F730031CBF00080041
:100F7A00BE033E08633C031CBE010800C3034308CA
:100F8A00633C031CC3010800A6032608023C023086
:100F9A000318A6000800A7032708323C031CA70170
:100FAA000800C0034008633C031CC001080001306C
:100FBA00C406C4050800A31DE62FA311FE30BD0513
:100FCA000800A3150800093E123C031C0800123C45
:100FDA00F73E03140800323C031C0800323CFE3E74
:100FEA00031C0800023E03140800323C031C0800DC
:060FFA00323C0314080064
:02400E00D430AC
:00000001FF
