:02000000F62BDD
:10000800FF00030E8301C5000B1911288C18B328B3
:10001800450E8300FF0E7F0E09008B120B11101086
:100028000108031DAB280408C60048080317031D70
:100038002228991419109A141A102E28FF3E031D0D
:100048002A28991419149A141A142E281914991074
:100058001A149A1003134930480748078400840A81
:10006800000884030004031D3F280E088000840A4A
:100078000F088000A42800080E02CF00840A000898
:100088008403031C013E0F02D000D01B6028840AA1
:100098000008CF02031CD003CF02031CD0030310B7
:1000A800000CCF02031CD0038403D01B602848082F
:1000B80003190430C704A4280310000DD100840AD2
:1000C800000DD200D3010318D30A0310D10DD20DAD
:1000D800D30DD10DD20DD30DD10DD20DD30D840377
:1000E8000008D102840A000803187D28013E03187D
:1000F800D303D202031CD3030E08D1070F08031C35
:100108008828013E0318D30AD2070318D30AD30C50
:10011800D20CD10CD30CD20CD10CD30CD20CD10CE8
:10012800D10F9928D20F9928D30AD30C520C8000EA
:100138008403510C8000480803190430FF3AC705AE
:10014800C80A4808FD3E0318C801460884008F0104
:100158008E011014803081000B118B160C288C1026
:100168000408C600231CCE28051085108512051228
:1001780087120713203022182130840000188516B2
:10018800801805160019871680190717221C0514F0
:1001980022188514221C24292210A50ACE302507EE
:1001A8000318A50126080319DC28A6030319BB14A4
:1001B80027080319E228A7030319BB152808031900
:1001C800E828A80303193B14380839040319F6284A
:1001D800B80BF3283908031DF628BB16F628380A89
:1001E8000319B90329082A042B0403190929A90B9F
:1001F80003292A082B04031D09293B150929290F5E
:100208000929AA032A0A0319AB032C082D042E0472
:100218002F0403192129AC0B18292D082E042F04AB
:10022800031D21293B1621292C0F2129AD032D0F50
:100238002129AE032E0A0319AF03460884000C28AF
:1002480022140130D4005530840054084705031D9A
:100258003D29000803194B298001CE3E03184B297C
:100268002E3E031C4B295408BA04540EFF3ABA0513
:100278004B29000A03194B29800ACE3E031C4B293F
:10028800540EBA045408FF3ABA05FF308000840AB5
:0E0298000310D40DD41D2929460884000C281B
:10062C00831203178D0070088C008B1383160C1526
:10063C0055308D00AA308D008C140C118B17831241
:10064C0003130800831203178D0083160C148312F6
:10065C000C0803130800A218372BF0000310700CC1
:10066C003C2B633C031C0030633C3C2BF001B03E44
:10067C000318F015031C503ED83E03187015031CCC
:10068C00283EEC3E0318F014031C143EF63E0318EF
:10069C007014031C0A3EA1007008A000080023146B
:1006AC00A2188713A21C8717A2188617A21C8613E0
:1006BC00861A642B831607148312080083160710FE
:1006CC008312071408002310051085108713861356
:1006DC0083160710831207100800BA102408031D94
:1006EC00F12EA2152216231C872BA80144080319EE
:1006FC00812BFF30842B0A30A218DF25BD00A314F8
:10070C00692B00302823BD00A3102311EE23A31165
:10071C00552BBA122408031D0800231C08002315AE
:10072C00692B3A11A318080023189F2B2311A3112E
:10073C005523EE232408031D822FBD0AA21CBD0ADB
:10074C003D08D8230318D02B5030A2186330BD00BD
:10075C00D02B3A10A31808002318B72B2311A31180
:10076C005523EE232408031DBF2FBD03A21CBD037C
:10077C003D08D8230318D02B0A30A2182930BD000D
:10078C00D02B3A1F08003A1E08003A133A12231CC9
:10079C005523F12E3D083123A21522163B1064304F
:1007AC00A8000800A218E42B503C031C0800503C85
:1007BC00F63E031C08000A3E03140800633C031CAD
:1007CC000800633CD73E031C0800293E03140800B4
:1007DC0023168B13F430B8000130B9008B170800C6
:1007EC008301203084008001840A841FF92B0F3090
:1007FC00A000A10083169501CC3085005F308600E7
:10080C000F3087008312031795019E019F019C30C6
:10081C00980095309900A5309A008316B0309E0050
:10082C008316031301087039273881008C018D0160
:10083C008C14FA3092008301900191014D3092009A
:10084C008C100B17830103302823A210FF3E0319D1
:10085C00A21400302823BD00D82303183C2C2E30C2
:10086C00A2184930BD00F00000301623FE30A21C47
:10087C00BD0501302823F03EBF00F827031CBF0143
:10088C0002302823BE00633C0330031CBE0005303D
:10089C002823C3008E02031CC301AC24C401063000
:1008AC002823D5020319C40A83160F1D5B2C83124F
:1008BC008B178F018E011014803081000B118B1659
:1008CC00061E6C2CFE25031C6C2C2F2D061F862C53
:1008DC00A216FE25031C882C04302823C000633C80
:1008EC000A30031CC00029309F00831650309F0033
:1008FC00831203171F1503139F140F30A7002F2DFE
:10090C000230232D0330232D3B103D08F000003026
:10091C0016233C08312B8B13A901AA01AB018B17B1
:10092C0008008B1329082A042B04031DA32CA901EE
:10093C00AB0103103E0DAA00AB0D8B1708008B13F7
:10094C00AC01AD01AE01AF018B170800B001B101D4
:10095C00B201B3010030B400EB30B5004130B60049
:10096C000030B7004308F7000310F70C031CCC2C25
:10097C003408B00735080318350FB10736080318CB
:10098C00360FB20737080318370FB3077708031968
:10099C0008000310B40DB50DB60DB70DBA2C8B13A2
:1009AC003008AC003108AD003208AE003308AF009F
:1009BC008B170800A31908003B128B139830A90061
:1009CC003A30AA000030AB008B17A3250800BB11EE
:1009DC006330C1001E08633E031CF92C633CC1004C
:1009EC0040020318092DA31D1A2DC20A4208053C0A
:1009FC0003181B2DC201A3181B2D23191B2DA3118A
:100A0C00231C55231B2D231A1B2DA3191A2DC20A87
:100A1C004208053C03181B2DC2012408031D1B2D85
:100A2C00A315231869231B2DC2019F140F30A70097
:100A3C000800BB122312080001303C232508E73EB6
:100A4C00031C8713031C86170318871703188613B8
:100A5C00242D8301FF30BC009B2555232217FE2536
:100A6C00031C222DCC300426B430042677308400AD
:100A7C000126001C2213FE25031C222DCC3004263B
:100A8C004E30042600300426003004264030042664
:100A9C00CE2583160D30970083126400BA18732389
:100AAC00BA1A8F233A1997233A1BC7233A18AF2344
:100ABC003A1AC7233B188A24BB18AD25BB19ED2461
:100ACC003B198E253B1AE024BB1A1F252408031D55
:100ADC003C27A2197225532DA2112808031D782D2D
:100AEC003C083123221E7C2D22128E2D4408031922
:100AFC00842D3C083D02031C8B2D882D3D083C02A7
:100B0C00031C8B2D861E912C972C861A912C972CBE
:100B1C003B1144080319972D3C083D02031CA32DDF
:100B2C009B2D3D083C02031CA32D8612D524231CAF
:100B3C00080083160714831208008616A5243B129E
:100B4C00231C080083160710831207140800BB101F
:100B5C00FE25031C222DCC300426BE300426743016
:100B6C00840001267530840001260310F50CF40C6A
:100B7C00F50CF40CF40A0319F50AF50C740CA21814
:100B8C00DF253F073C020319CD2DBC02A215CE2D4B
:100B9C00FE25031C222DCC30042644300426323092
:100BAC00BB10A6000800861BDD2D861708008613D7
:100BBC000800F100F201E630F000F301F40103103B
:100BCC00F00C031CEF2D7108F30772080318720F59
:100BDC00F40770080319F62D0310F10DF20DE52D35
:100BEC007408203E633C031C63300318633C08000C
:100BFC00A21E072E7C2EA21E5A2ECF2EA21E302EE7
:100C0C00A52EF1018B13831606168312061283167A
:100C1C00061283126330F200000000000000000096
:100C2C00F20B142E8316061683120D30F200000000
:100C3C00000000000000F20B1F2E061EF10A8B179D
:100C4C005530F2000000000000000000F20B2A2ECC
:100C5C00F10C0034F1000830F0008B1306128316EF
:100C6C0006128312000000000000F10C831603181A
:100C7C0006160B30F2000000000000000000F20B22
:100C8C00432E06168312F003031D8B17031D332E00
:100C9C00221B582E710C443C031D582E061683162D
:100CAC00061283128B1700340830F0008B130612D7
:100CBC008316061200000000000000000000000077
:100CCC0006168312000000000000000006088B17B7
:100CDC001039FF3E800C0930F200000000000000CB
:100CEC000000F20B752EF00B5C2E0034F1018B130F
:100CFC0083160617831206138316061383126330AA
:100D0C00F2000000000000000000F20B892E831698
:100D1C00061783120D30F2000000000000000000E6
:100D2C00F20B942E061FF10A8B175530F2000000BF
:100D3C00000000000000F20B9F2EF10C0034F100BB
:100D4C000830F0008B130613831606138312000071
:100D5C0000000000F10C8316031806170B30F2008C
:100D6C000000000000000000F20BB82E06178312E2
:100D7C00F003031D8B17031DA82E221BCD2E710C07
:100D8C00443C031DCD2E06178316061383128B17B6
:100D9C0000340830F0008B13061383160613000082
:100DAC000000000000000000000006178312000085
:100DBC0000000000000006088B174039FF3E800C35
:100DCC000930F2000000000000000000F20BEA2ED7
:100DDC00F00BD12E00347C272408031DF72EA40A17
:100DEC000800FF3E031D012F3F08103EF0000130AC
:100DFC001623A40A0800FF3E031D0A2F3E08F0002C
:100E0C0002301623A40A0800FF3E031D152F0030E4
:100E1C00A2180130F00003301623A40A0800FF3E8C
:100E2C00031D1F2F4308F00005301623AC24A40A21
:100E3C000800FF3E031D2E2F4408FF3E0030031C0C
:100E4C005530F00006301623A21E382FA40A0800D5
:100E5C00FF3E031D332FA40A08004008F0000430A5
:100E6C001623382FA401A2152216552B2508F63E61
:100E7C00031C7C2F2403031D502F0F30BF1B4A2F44
:100E8C00A0003F08A1000800A1003F08FF3A013E66
:100E9C00A0000800FF3E031D562F3E083C2308000F
:100EAC00FF3E031D612FA2185E2F871786130800C3
:100EBC00861787130800FF3E031D682F871743080A
:100ECC003C230800FF3E031D712F86170F30A00036
:100EDC004408A1000800FF3E031D792F86178717D1
:100EEC0041083C23080040083C2308000F30A000B8
:100EFC00A100871386130800FF3E031D8C2FBF0A29
:100F0C003F08F8270930031CBF000800FF3E031DF3
:100F1C00962FBE0A3E08633C6330031CBE000800DB
:100F2C00FF3E031DA12FA21C9F2FA210FE30BD055A
:100F3C000800A2140800FF3E031DAB2FC30A430890
:100F4C000E3C0E30031CC3000800FF3E031DB52FE2
:100F5C00C40A4408013C0130031CC4000800FF3ED5
:100F6C0003190800C00A4008633C6330031CC0002E
:100F7C000800FF3E031DC92FBF033F08F827F730B9
:100F8C00031CBF000800FF3E031DD22FBE033E080A
:100F9C00633C031CBE010800FF3E031DDD2FA21C99
:100FAC00DB2FA210FE30BD050800A2140800FF3E86
:100FBC00031DE62FC30343080E3C031CC3010800AA
:100FCC00FF3E031DEF2FC4034408013C031CC40166
:100FDC000800FF3E03190800C0034008633C031CD3
:100FEC00C0010800093E123C031C0800123CF73EED
:040FFC0003140800D2
:02400E00D430AC
:00000001FF
