:02000000162BBD
:10000800FF00030E8301C7000B1911288C18B328B1
:10001800470E8300FF0E7F0E09008B120B11101084
:100028000108031DAB280408C8004A080317031D6C
:100038002228991419109A141A102E28FF3E031D0D
:100048002A28991419149A141A142E281914991074
:100058001A149A1003134B304A074A078400840A7B
:10006800000884030004031D3F280E088000840A4A
:100078000F088000A42800080E02D100840A000896
:100088008403031C013E0F02D200D21B6028840A9D
:100098000008D102031CD203D102031CD2030310AF
:1000A800000CD102031CD2038403D21B60284A0827
:1000B80003190430C904A4280310000DD300840ACE
:1000C800000DD400D5010318D50A0310D30DD40DA3
:1000D800D50DD30DD40DD50DD30DD40DD50D840369
:1000E8000008D302840A000803187D28013E03187B
:1000F800D503D402031CD5030E08D3070F08031C2D
:100108008828013E0318D50AD4070318D50AD50C48
:10011800D40CD30CD50CD40CD30CD50CD40CD30CD8
:10012800D30F9928D40F9928D50AD50C540C8000E0
:100138008403530C80004A0803190430FF3AC905A8
:10014800CA0A4A08FD3E0318CA01480884008F01FC
:100158008E011014803081000B118B160C288C1026
:100168000408C800231CCE28051085108512051226
:1001780087120713203022182130840000188516B2
:10018800801805160019871680190717221C0514F0
:1001980022188514221C2A292210A50ACE302507E8
:1001A8000318A5013A080319DC28BA0303193D17F7
:1001B80026080319E228A6030319BD142708031902
:1001C800E828A7030319BD1528080319EE28A80372
:1001D80003193D14380839040319FC28B80BF92809
:1001E8003908031DFC28BD16FC28380A0319B90371
:1001F80029082A042B0403190F29A90B09292A08FD
:100208002B04031D0F293D150F29290F0F29AA03B8
:100218002A0A0319AB032C082D042E042F040319F2
:100228002729AC0B1E292D082E042F04031D27296E
:100238003D1627292C0F2729AD032D0F2729AE039B
:100248002E0A0319AF03480884000C282214013031
:10025800D6005730840056084905031D4629000872
:10026800031955298001CE3E031C3D295608BC04BC
:1002780055292E3E031C55295608BB04560EFF3A35
:10028800BB055529000A03195529800ACE3E031CCF
:100298005529560EBB045608FF3ABB05BC05FF306E
:1002A8008000840A0310D60DD61D2F294808840023
:0202B8000C2810
:10057200831203178D0070088C008B1383160C15E1
:1005820055308D00AA308D008C140C118B178312FC
:1005920003130800831203178D0083160C148312B1
:1005A2000C0803130800A218DA2AF0000310700CDA
:1005B200DF2A633C031C0030633CDF2AF001B03EBB
:1005C2000318F015031C503ED83E03187015031C87
:1005D200283EEC3E0318F014031C143EF63E0318AA
:1005E2007014031C0A3EA1007008A0000800231426
:1005F200A2188713A21C8717A2188617A21C86139B
:10060200861A072B83160714831208008316071015
:100612008312071408002310051085108713861310
:10062200831607108312071008008301203084000C
:100632008001840A841F192B0F30A000A1003230E0
:10064200C30083169501CC3085005F3086000F30E1
:1006520087008312031795019E019F019C30980029
:1006620095309900A5309A008316B0309E0083160B
:10067200031301087039273881008C018D018C1415
:10068200FA3092008301900191014D3092008C105A
:100692000B1783010330CB22A210FF3E0319A214D1
:1006A2000030CB22BF00D42403185E2B2E30A218B8
:1006B2004930BF00F0000030B922FE30A21CBF0555
:1006C2000130CB22F03EC100EA26031CC1010230F8
:1006D200CB22C000633C0330031CC0000530CB2298
:1006E200C5008E02031CC501D023C6010630CB22F1
:1006F200D5020319C60A0430CB22C200633C0A3079
:10070200031CC20083160F1D842B83128B178F01CB
:100712008E011014803081000B118B16061E952B52
:10072200F224031C952BFF2E061FA92BA216F224DE
:10073200031CAB2BA21729309F00831650309F0059
:10074200831203171F1503139F140F30A700FF2EE8
:100752000230F32E0330F32E3D103F08F00000303C
:10076200B9223E08D422F82A8B13A901AA01AB01AF
:100772008B1708008B1329082A042B04031DC72B8F
:10078200A901AB010310400DAA00AB0D8B170800A5
:100792008B13AC01AD01AE01AF018B170800B001A4
:1007A200B101B201B3010030B400EB30B500413009
:1007B200B6000030B7004508F7000310F70C031C21
:1007C200F02B3408B00735080318350FB107360887
:1007D2000318360FB20737080318370FB307770825
:1007E200031908000310B40DB50DB60DB70DDE2BBD
:1007F2008B133008AC003108AD003208AE0033086C
:10080200AF008B170800A31908003D128B13983014
:10081200A9003A30AA000030AB008B17A5270800C8
:10082200BD116330C3001E08633E031C1D2C633CD4
:10083200C300420203182D2CA31D3E2CC40A4408F7
:10084200053C03183F2CC401A3183F2C23193F2C4D
:10085200A311231CF8223F2C231A3F2CA3193E2C50
:10086200C40A4408053C03183F2CC4012408031D94
:100872003F2CA31523180C233F2CC4019F140F30C7
:10088200A7000800BD1223120800BB102408031D94
:10089200E52DA2152216231C5A2CA801460803197D
:1008A200542CFF30572C0A30A218E127BF00A314A2
:1008B2000C2B0030CB22BF00A3102311EA24A3117A
:1008C200F82ABB122408031D0800231C0800231564
:1008D2000C2B3B11A31808002318722C2311A3110F
:1008E200F822EA242408031D742E28080319CC2CAC
:1008F200BF0AA21CBF0A3F08D4240318CC2C5030D4
:10090200A2186330BF00CC2C24080319C32C053075
:10091200BA002408742E3B10A31808002318942C44
:100922002311A311F822EA242408031DB12E28085A
:100932000319CC2CBF03A21CBF033F08D424031805
:10094200CC2C0A30A2182930BF00CC2C2408031961
:10095200C32C0530BA002408B12E3D130530BA006D
:1009620024083B1B742E3B1AB12E0800BA013D131A
:100972003C103C11BC102408031908003B133B1225
:10098200BB1208003B1F08003B1E08003B133B1232
:10099200231CF822E52D3F08D422A21522163D1071
:1009A200C830A8000800A218E02C503C031C080024
:1009B200503CF63E031C08000A3E03140800633C48
:1009C200031C0800633CD73E031C0800293E0314A5
:1009D200080023168B13F430B8000130B9008B17CE
:1009E2000800A21EFB2C702DA21E4E2DC32DA21E8E
:1009F200242D992DF1018B138316061683120612EC
:100A02008316061283126330F20000000000000019
:100A12000000F20B082D8316061683120D30F20029
:100A22000000000000000000F20B132D061EF10A68
:100A32008B175530F2000000000000000000F20B9E
:100A42001E2DF10C0034F1000830F0008B13061259
:100A5200831606128312000000000000F10C8316B8
:100A6200031806160B30F200000000000000000020
:100A7200F20B372D06168312F003031D8B17031D8D
:100A8200272D221B4C2D710C443C031D4C2D0616A8
:100A92008316061283128B1700340830F0008B1372
:100AA200061283160612000000000000000000007B
:100AB2000000061683120000000000000000060875
:100AC2008B171039FF3E800C0930F2000000000045
:100AD20000000000F20B692DF00B502D0034F101E3
:100AE2008B138316061783120613831606138312BB
:100AF2006330F2000000000000000000F20B7D2DC8
:100B02008316061783120D30F20000000000000069
:100B12000000F20B882D061FF10A8B175530F200E8
:100B22000000000000000000F20B932DF10C0034D5
:100B3200F1000830F0008B1306138316061383129C
:100B4200000000000000F10C8316031806170B309A
:100B5200F2000000000000000000F20BAC2D0617AE
:100B62008312F003031D8B17031D9C2D221BC12D25
:100B7200710C443C031DC12D061783160613831204
:100B82008B1700340830F0008B13061383160613FC
:100B920000000000000000000000000006178312A1
:100BA200000000000000000006088B174039FF3EDD
:100BB200800C0930F2000000000000000000F20B7F
:100BC200DE2DF00BC52D00346E262408031DEB2DFF
:100BD200A40A0800FF3E031DF52D4108103EF00057
:100BE2000130B922A40A0800FF3E031DFE2D400871
:100BF200F0000230B922A40A0800FF3E031D092EAC
:100C02000030A2180130F0000330B922A40A080013
:100C1200FF3E031D132E4508F0000530B922D023F4
:100C2200A40A0800FF3E031D202E4608FF3E0030A6
:100C3200031C5530F0000630B922A40A0800FF3E1A
:100C4200031D252EA40A08004208F0000430B92230
:100C52002A2EA401A2152216F82A2508F63E031C04
:100C62006E2E2403031D422E0F30C11B3C2EA0000A
:100C72004108A1000800A1004108FF3A013EA0007E
:100C82000800FF3E031D482E4008DF220800FF3EF9
:100C9200031D532EA218502E87178613080086179D
:100CA20087130800FF3E031D5A2E87174508DF22CF
:100CB2000800FF3E031D632E86170F30A000460872
:100CC200A1000800FF3E031D6B2E861787174308FD
:100CD200DF2208004208DF2208000F30A000A10036
:100CE200871386130800FF3E031D7E2EC10A4108AA
:100CF200EA260930031CC1000800FF3E031D882EAE
:100D0200C00A4008633C6330031CC0000800FF3E79
:100D1200031D932EA21C912EA210FE30BF050800C7
:100D2200A2140800FF3E031D9D2EC50A45080E3C75
:100D32000E30031CC5000800FF3E031DA72EC60A85
:100D42004608013C0130031CC6000800FF3E03199F
:100D52000800C20A4208633C6330031CC200080058
:100D6200FF3E031DBB2EC1034108EA26F730031CD8
:100D7200C1000800FF3E031DC42EC0034008633CAF
:100D8200031CC0010800FF3E031DCF2EA21CCD2E66
:100D9200A210FE30BF050800A2140800FF3E031D8A
:100DA200D82EC50345080E3C031CC5010800FF3EB2
:100DB200031DE12EC6034608013C031CC6010800C0
:100DC200FF3E03190800C2034208633C031CC20130
:100DD2000800093E123C031C0800123CF73E0314B3
:100DE20008000130DF222508E73E031C8713031C9D
:100DF20086170318871703188613F42E8301FF3012
:100E0200BE009D27F8222217F224031CF22ECC30BA
:100E1200F824B430F82477308400F524001C22131F
:100E2200F224031CF22ECC30F8244E30F824003089
:100E3200F8240030F8244030F824D02783161730E5
:100E4200970083126400BB184624BB1A62243B1924
:100E52006A243B188C243C08031DB7243D1BAE2496
:100E62003A08031D382F3B1B85243B1AA7243D1843
:100E7200AD23BD18AF27BD1911243D1990273D1A86
:100E82000424BD1A43242408031D2E262808031D0A
:100E92004F27A21F5B27A2197427232F2508F63E8E
:100EA200031C582FA21C8717A21886170800871345
:100EB20086130800430842020318692FA31D080085
:100EC200A318080023190800A311231CF822080004
:100ED200231A0800A31908002408031D0800A315FB
:100EE20023180C230800A2112808031D7A2F3E089C
:100EF200D422221E7E2F2212902F46080319862FFB
:100F02003E083F02031C8D2F8A2F3F083E02031C1E
:100F12008D2F861EB52BBB2B861AB52BBB2B3D11F5
:100F220046080319992F3E083F02031CA52F9D2F47
:100F32003F083E02031CA52F8612F923231C08003A
:100F420083160714831208008616C9233D12231C38
:100F5200080083160710831207140800BD10F2243C
:100F6200031CF22ECC30F824BE30F82474308400F6
:100F7200F52475308400F5240310F50CF40CF50CFF
:100F8200F40CF40A0319F50AF50C740CA218E12703
:100F920041073E020319CF2FBE02A215D02FF22421
:100FA200031CF22ECC30F8244430F8243230BD1029
:100FB200A6000800861BDF2F86170800861308008C
:100FC200F100F201E630F000F301F4010310F00C3D
:100FD200031CF12F7108F30772080318720FF4074C
:100FE20070080319F82F0310F10DF20DE72F7408A2
:0E0FF200203E633C031C63300318633C080080
:02400E00D430AC
:00000001FF
